{
  "_format": "hh-sol-artifact-1",
  "contractName": "NikeNFT",
  "sourceName": "src/web3/contracts/SneakerStampNft.sol",
  "abi": [
    {
      "inputs": [
        {
          "internalType": "string",
          "name": "_name",
          "type": "string"
        },
        {
          "internalType": "string",
          "name": "_symbol",
          "type": "string"
        },
        {
          "internalType": "address",
          "name": "ownerAddress",
          "type": "address"
        }
      ],
      "stateMutability": "nonpayable",
      "type": "constructor"
    },
    {
      "anonymous": false,
      "inputs": [
        {
          "indexed": true,
          "internalType": "address",
          "name": "owner",
          "type": "address"
        },
        {
          "indexed": true,
          "internalType": "address",
          "name": "approved",
          "type": "address"
        },
        {
          "indexed": true,
          "internalType": "uint256",
          "name": "tokenId",
          "type": "uint256"
        }
      ],
      "name": "Approval",
      "type": "event"
    },
    {
      "anonymous": false,
      "inputs": [
        {
          "indexed": true,
          "internalType": "address",
          "name": "owner",
          "type": "address"
        },
        {
          "indexed": true,
          "internalType": "address",
          "name": "operator",
          "type": "address"
        },
        {
          "indexed": false,
          "internalType": "bool",
          "name": "approved",
          "type": "bool"
        }
      ],
      "name": "ApprovalForAll",
      "type": "event"
    },
    {
      "anonymous": false,
      "inputs": [
        {
          "indexed": false,
          "internalType": "uint256",
          "name": "_fromTokenId",
          "type": "uint256"
        },
        {
          "indexed": false,
          "internalType": "uint256",
          "name": "_toTokenId",
          "type": "uint256"
        }
      ],
      "name": "BatchMetadataUpdate",
      "type": "event"
    },
    {
      "anonymous": false,
      "inputs": [
        {
          "indexed": false,
          "internalType": "uint256",
          "name": "_tokenId",
          "type": "uint256"
        }
      ],
      "name": "MetadataUpdate",
      "type": "event"
    },
    {
      "anonymous": false,
      "inputs": [
        {
          "indexed": true,
          "internalType": "address",
          "name": "from",
          "type": "address"
        },
        {
          "indexed": true,
          "internalType": "address",
          "name": "to",
          "type": "address"
        },
        {
          "indexed": true,
          "internalType": "uint256",
          "name": "tokenId",
          "type": "uint256"
        }
      ],
      "name": "Transfer",
      "type": "event"
    },
    {
      "anonymous": false,
      "inputs": [
        {
          "indexed": false,
          "internalType": "uint256",
          "name": "tokenId",
          "type": "uint256"
        }
      ],
      "name": "tokenCreated",
      "type": "event"
    },
    {
      "inputs": [
        {
          "internalType": "address",
          "name": "to",
          "type": "address"
        },
        {
          "internalType": "uint256",
          "name": "tokenId",
          "type": "uint256"
        }
      ],
      "name": "approve",
      "outputs": [],
      "stateMutability": "nonpayable",
      "type": "function"
    },
    {
      "inputs": [
        {
          "internalType": "address",
          "name": "owner",
          "type": "address"
        }
      ],
      "name": "balanceOf",
      "outputs": [
        {
          "internalType": "uint256",
          "name": "",
          "type": "uint256"
        }
      ],
      "stateMutability": "view",
      "type": "function"
    },
    {
      "inputs": [
        {
          "internalType": "string",
          "name": "tokenURI",
          "type": "string"
        },
        {
          "internalType": "string",
          "name": "tokenUUID",
          "type": "string"
        }
      ],
      "name": "createToken",
      "outputs": [
        {
          "internalType": "uint256",
          "name": "",
          "type": "uint256"
        }
      ],
      "stateMutability": "nonpayable",
      "type": "function"
    },
    {
      "inputs": [
        {
          "internalType": "uint256",
          "name": "tokenId",
          "type": "uint256"
        }
      ],
      "name": "getApproved",
      "outputs": [
        {
          "internalType": "address",
          "name": "",
          "type": "address"
        }
      ],
      "stateMutability": "view",
      "type": "function"
    },
    {
      "inputs": [],
      "name": "getLastId",
      "outputs": [
        {
          "internalType": "uint256",
          "name": "",
          "type": "uint256"
        }
      ],
      "stateMutability": "view",
      "type": "function"
    },
    {
      "inputs": [
        {
          "internalType": "address",
          "name": "owner",
          "type": "address"
        },
        {
          "internalType": "address",
          "name": "operator",
          "type": "address"
        }
      ],
      "name": "isApprovedForAll",
      "outputs": [
        {
          "internalType": "bool",
          "name": "",
          "type": "bool"
        }
      ],
      "stateMutability": "view",
      "type": "function"
    },
    {
      "inputs": [],
      "name": "name",
      "outputs": [
        {
          "internalType": "string",
          "name": "",
          "type": "string"
        }
      ],
      "stateMutability": "view",
      "type": "function"
    },
    {
      "inputs": [],
      "name": "owner",
      "outputs": [
        {
          "internalType": "address",
          "name": "",
          "type": "address"
        }
      ],
      "stateMutability": "view",
      "type": "function"
    },
    {
      "inputs": [
        {
          "internalType": "uint256",
          "name": "tokenId",
          "type": "uint256"
        }
      ],
      "name": "ownerOf",
      "outputs": [
        {
          "internalType": "address",
          "name": "",
          "type": "address"
        }
      ],
      "stateMutability": "view",
      "type": "function"
    },
    {
      "inputs": [
        {
          "internalType": "address",
          "name": "from",
          "type": "address"
        },
        {
          "internalType": "address",
          "name": "to",
          "type": "address"
        },
        {
          "internalType": "uint256",
          "name": "tokenId",
          "type": "uint256"
        }
      ],
      "name": "safeTransferFrom",
      "outputs": [],
      "stateMutability": "nonpayable",
      "type": "function"
    },
    {
      "inputs": [
        {
          "internalType": "address",
          "name": "from",
          "type": "address"
        },
        {
          "internalType": "address",
          "name": "to",
          "type": "address"
        },
        {
          "internalType": "uint256",
          "name": "tokenId",
          "type": "uint256"
        },
        {
          "internalType": "bytes",
          "name": "data",
          "type": "bytes"
        }
      ],
      "name": "safeTransferFrom",
      "outputs": [],
      "stateMutability": "nonpayable",
      "type": "function"
    },
    {
      "inputs": [
        {
          "internalType": "address",
          "name": "operator",
          "type": "address"
        },
        {
          "internalType": "bool",
          "name": "approved",
          "type": "bool"
        }
      ],
      "name": "setApprovalForAll",
      "outputs": [],
      "stateMutability": "nonpayable",
      "type": "function"
    },
    {
      "inputs": [
        {
          "internalType": "bytes4",
          "name": "interfaceId",
          "type": "bytes4"
        }
      ],
      "name": "supportsInterface",
      "outputs": [
        {
          "internalType": "bool",
          "name": "",
          "type": "bool"
        }
      ],
      "stateMutability": "view",
      "type": "function"
    },
    {
      "inputs": [],
      "name": "symbol",
      "outputs": [
        {
          "internalType": "string",
          "name": "",
          "type": "string"
        }
      ],
      "stateMutability": "view",
      "type": "function"
    },
    {
      "inputs": [
        {
          "internalType": "uint256",
          "name": "tokenId",
          "type": "uint256"
        }
      ],
      "name": "tokenURI",
      "outputs": [
        {
          "internalType": "string",
          "name": "",
          "type": "string"
        }
      ],
      "stateMutability": "view",
      "type": "function"
    },
    {
      "inputs": [
        {
          "internalType": "address",
          "name": "from",
          "type": "address"
        },
        {
          "internalType": "address",
          "name": "to",
          "type": "address"
        },
        {
          "internalType": "uint256",
          "name": "tokenId",
          "type": "uint256"
        }
      ],
      "name": "transferFrom",
      "outputs": [],
      "stateMutability": "nonpayable",
      "type": "function"
    },
    {
      "inputs": [
        {
          "internalType": "uint256",
          "name": "tokenId",
          "type": "uint256"
        },
        {
          "internalType": "string",
          "name": "_uuid",
          "type": "string"
        }
      ],
      "name": "transferNFT",
      "outputs": [],
      "stateMutability": "nonpayable",
      "type": "function"
    }
  ],
  "bytecode": "0x60806040523480156200001157600080fd5b50604051620035e9380380620035e98339818101604052810190620000379190620002a1565b828281600090816200004a919062000586565b5080600190816200005c919062000586565b50505080600860006101000a81548173ffffffffffffffffffffffffffffffffffffffff021916908373ffffffffffffffffffffffffffffffffffffffff1602179055505050506200066d565b6000604051905090565b600080fd5b600080fd5b600080fd5b600080fd5b6000601f19601f8301169050919050565b7f4e487b7100000000000000000000000000000000000000000000000000000000600052604160045260246000fd5b6200011282620000c7565b810181811067ffffffffffffffff82111715620001345762000133620000d8565b5b80604052505050565b600062000149620000a9565b905062000157828262000107565b919050565b600067ffffffffffffffff8211156200017a5762000179620000d8565b5b6200018582620000c7565b9050602081019050919050565b60005b83811015620001b257808201518184015260208101905062000195565b60008484015250505050565b6000620001d5620001cf846200015c565b6200013d565b905082815260208101848484011115620001f457620001f3620000c2565b5b6200020184828562000192565b509392505050565b600082601f830112620002215762000220620000bd565b5b815162000233848260208601620001be565b91505092915050565b600073ffffffffffffffffffffffffffffffffffffffff82169050919050565b600062000269826200023c565b9050919050565b6200027b816200025c565b81146200028757600080fd5b50565b6000815190506200029b8162000270565b92915050565b600080600060608486031215620002bd57620002bc620000b3565b5b600084015167ffffffffffffffff811115620002de57620002dd620000b8565b5b620002ec8682870162000209565b935050602084015167ffffffffffffffff81111562000310576200030f620000b8565b5b6200031e8682870162000209565b925050604062000331868287016200028a565b9150509250925092565b600081519050919050565b7f4e487b7100000000000000000000000000000000000000000000000000000000600052602260045260246000fd5b600060028204905060018216806200038e57607f821691505b602082108103620003a457620003a362000346565b5b50919050565b60008190508160005260206000209050919050565b60006020601f8301049050919050565b600082821b905092915050565b6000600883026200040e7fffffffffffffffffffffffffffffffffffffffffffffffffffffffffffffffff82620003cf565b6200041a8683620003cf565b95508019841693508086168417925050509392505050565b6000819050919050565b6000819050919050565b600062000467620004616200045b8462000432565b6200043c565b62000432565b9050919050565b6000819050919050565b620004838362000446565b6200049b62000492826200046e565b848454620003dc565b825550505050565b600090565b620004b2620004a3565b620004bf81848462000478565b505050565b5b81811015620004e757620004db600082620004a8565b600181019050620004c5565b5050565b601f82111562000536576200050081620003aa565b6200050b84620003bf565b810160208510156200051b578190505b620005336200052a85620003bf565b830182620004c4565b50505b505050565b600082821c905092915050565b60006200055b600019846008026200053b565b1980831691505092915050565b600062000576838362000548565b9150826002028217905092915050565b62000591826200033b565b67ffffffffffffffff811115620005ad57620005ac620000d8565b5b620005b9825462000375565b620005c6828285620004eb565b600060209050601f831160018114620005fe5760008415620005e9578287015190505b620005f5858262000568565b86555062000665565b601f1984166200060e86620003aa565b60005b82811015620006385784890151825560018201915060208501945060208101905062000611565b8683101562000658578489015162000654601f89168262000548565b8355505b6001600288020188555050505b505050505050565b612f6c806200067d6000396000f3fe608060405234801561001057600080fd5b506004361061010b5760003560e01c806370a08231116100a2578063a8e5862d11610071578063a8e5862d146102ca578063b88d4fde146102e8578063bcbc14c314610304578063c87b56dd14610320578063e985e9c5146103505761010b565b806370a08231146102425780638da5cb5b1461027257806395d89b4114610290578063a22cb465146102ae5761010b565b806323b872dd116100de57806323b872dd146101aa5780632f2f2d56146101c657806342842e0e146101f65780636352211e146102125761010b565b806301ffc9a71461011057806306fdde0314610140578063081812fc1461015e578063095ea7b31461018e575b600080fd5b61012a60048036038101906101259190611c5a565b610380565b6040516101379190611ca2565b60405180910390f35b6101486103e1565b6040516101559190611d4d565b60405180910390f35b61017860048036038101906101739190611da5565b610473565b6040516101859190611e13565b60405180910390f35b6101a860048036038101906101a39190611e5a565b6104b9565b005b6101c460048036038101906101bf9190611e9a565b6105d0565b005b6101e060048036038101906101db9190612022565b610630565b6040516101ed91906120a9565b60405180910390f35b610210600480360381019061020b9190611e9a565b610772565b005b61022c60048036038101906102279190611da5565b610792565b6040516102399190611e13565b60405180910390f35b61025c600480360381019061025791906120c4565b610818565b60405161026991906120a9565b60405180910390f35b61027a6108cf565b6040516102879190611e13565b60405180910390f35b6102986108f5565b6040516102a59190611d4d565b60405180910390f35b6102c860048036038101906102c3919061211d565b610987565b005b6102d261099d565b6040516102df91906120a9565b60405180910390f35b61030260048036038101906102fd91906121fe565b6109ae565b005b61031e60048036038101906103199190612281565b610a10565b005b61033a60048036038101906103359190611da5565b610ae1565b6040516103479190611d4d565b60405180910390f35b61036a600480360381019061036591906122dd565b610bf3565b6040516103779190611ca2565b60405180910390f35b6000634906490660e01b7bffffffffffffffffffffffffffffffffffffffffffffffffffffffff1916827bffffffffffffffffffffffffffffffffffffffffffffffffffffffff191614806103da57506103d982610c87565b5b9050919050565b6060600080546103f09061234c565b80601f016020809104026020016040519081016040528092919081815260200182805461041c9061234c565b80156104695780601f1061043e57610100808354040283529160200191610469565b820191906000526020600020905b81548152906001019060200180831161044c57829003601f168201915b5050505050905090565b600061047e82610d69565b6004600083815260200190815260200160002060009054906101000a900473ffffffffffffffffffffffffffffffffffffffff169050919050565b60006104c482610792565b90508073ffffffffffffffffffffffffffffffffffffffff168373ffffffffffffffffffffffffffffffffffffffff1603610534576040517f08c379a000000000000000000000000000000000000000000000000000000000815260040161052b906123ef565b60405180910390fd5b8073ffffffffffffffffffffffffffffffffffffffff16610553610db4565b73ffffffffffffffffffffffffffffffffffffffff16148061058257506105818161057c610db4565b610bf3565b5b6105c1576040517f08c379a00000000000000000000000000000000000000000000000000000000081526004016105b890612481565b60405180910390fd5b6105cb8383610dbc565b505050565b6105e16105db610db4565b82610e75565b610620576040517f08c379a000000000000000000000000000000000000000000000000000000000815260040161061790612513565b60405180910390fd5b61062b838383610f0a565b505050565b6000600860009054906101000a900473ffffffffffffffffffffffffffffffffffffffff1673ffffffffffffffffffffffffffffffffffffffff163373ffffffffffffffffffffffffffffffffffffffff16146106c2576040517f08c379a00000000000000000000000000000000000000000000000000000000081526004016106b99061257f565b60405180910390fd5b6106cc6007611203565b60006106d86007611219565b9050610706600860009054906101000a900473ffffffffffffffffffffffffffffffffffffffff1682611227565b6107108185611444565b82600960008381526020019081526020016000209081610730919061274b565b507f0a6b2a25f2764bb23ba81dc1f3c7e5885291c116a26ba73b46c15ed4948317418160405161076091906120a9565b60405180910390a18091505092915050565b61078d838383604051806020016040528060008152506109ae565b505050565b60008061079e836114e8565b9050600073ffffffffffffffffffffffffffffffffffffffff168173ffffffffffffffffffffffffffffffffffffffff160361080f576040517f08c379a000000000000000000000000000000000000000000000000000000000815260040161080690612869565b60405180910390fd5b80915050919050565b60008073ffffffffffffffffffffffffffffffffffffffff168273ffffffffffffffffffffffffffffffffffffffff1603610888576040517f08c379a000000000000000000000000000000000000000000000000000000000815260040161087f906128fb565b60405180910390fd5b600360008373ffffffffffffffffffffffffffffffffffffffff1673ffffffffffffffffffffffffffffffffffffffff168152602001908152602001600020549050919050565b600860009054906101000a900473ffffffffffffffffffffffffffffffffffffffff1681565b6060600180546109049061234c565b80601f01602080910402602001604051908101604052809291908181526020018280546109309061234c565b801561097d5780601f106109525761010080835404028352916020019161097d565b820191906000526020600020905b81548152906001019060200180831161096057829003601f168201915b5050505050905090565b610999610992610db4565b8383611525565b5050565b60006109a96007611219565b905090565b6109bf6109b9610db4565b83610e75565b6109fe576040517f08c379a00000000000000000000000000000000000000000000000000000000081526004016109f590612513565b60405180910390fd5b610a0a84848484611691565b50505050565b80604051602001610a219190612957565b6040516020818303038152906040528051906020012060096000848152602001908152602001600020604051602001610a5a91906129f1565b6040516020818303038152906040528051906020012014610ab0576040517f08c379a0000000000000000000000000000000000000000000000000000000008152600401610aa790612a54565b60405180910390fd5b610add600860009054906101000a900473ffffffffffffffffffffffffffffffffffffffff163384610f0a565b5050565b6060610aec82610d69565b6000600660008481526020019081526020016000208054610b0c9061234c565b80601f0160208091040260200160405190810160405280929190818152602001828054610b389061234c565b8015610b855780601f10610b5a57610100808354040283529160200191610b85565b820191906000526020600020905b815481529060010190602001808311610b6857829003601f168201915b505050505090506000610b966116ed565b90506000815103610bab578192505050610bee565b600082511115610be0578082604051602001610bc8929190612a74565b60405160208183030381529060405292505050610bee565b610be984611704565b925050505b919050565b6000600560008473ffffffffffffffffffffffffffffffffffffffff1673ffffffffffffffffffffffffffffffffffffffff16815260200190815260200160002060008373ffffffffffffffffffffffffffffffffffffffff1673ffffffffffffffffffffffffffffffffffffffff16815260200190815260200160002060009054906101000a900460ff16905092915050565b60007f80ac58cd000000000000000000000000000000000000000000000000000000007bffffffffffffffffffffffffffffffffffffffffffffffffffffffff1916827bffffffffffffffffffffffffffffffffffffffffffffffffffffffff19161480610d5257507f5b5e139f000000000000000000000000000000000000000000000000000000007bffffffffffffffffffffffffffffffffffffffffffffffffffffffff1916827bffffffffffffffffffffffffffffffffffffffffffffffffffffffff1916145b80610d625750610d618261176c565b5b9050919050565b610d72816117d6565b610db1576040517f08c379a0000000000000000000000000000000000000000000000000000000008152600401610da890612869565b60405180910390fd5b50565b600033905090565b816004600083815260200190815260200160002060006101000a81548173ffffffffffffffffffffffffffffffffffffffff021916908373ffffffffffffffffffffffffffffffffffffffff160217905550808273ffffffffffffffffffffffffffffffffffffffff16610e2f83610792565b73ffffffffffffffffffffffffffffffffffffffff167f8c5be1e5ebec7d5bd14f71427d1e84f3dd0314c0f7b2291e5b200ac8c7c3b92560405160405180910390a45050565b600080610e8183610792565b90508073ffffffffffffffffffffffffffffffffffffffff168473ffffffffffffffffffffffffffffffffffffffff161480610ec35750610ec28185610bf3565b5b80610f0157508373ffffffffffffffffffffffffffffffffffffffff16610ee984610473565b73ffffffffffffffffffffffffffffffffffffffff16145b91505092915050565b8273ffffffffffffffffffffffffffffffffffffffff16610f2a82610792565b73ffffffffffffffffffffffffffffffffffffffff1614610f80576040517f08c379a0000000000000000000000000000000000000000000000000000000008152600401610f7790612b0a565b60405180910390fd5b600073ffffffffffffffffffffffffffffffffffffffff168273ffffffffffffffffffffffffffffffffffffffff1603610fef576040517f08c379a0000000000000000000000000000000000000000000000000000000008152600401610fe690612b9c565b60405180910390fd5b610ffc8383836001611817565b8273ffffffffffffffffffffffffffffffffffffffff1661101c82610792565b73ffffffffffffffffffffffffffffffffffffffff1614611072576040517f08c379a000000000000000000000000000000000000000000000000000000000815260040161106990612b0a565b60405180910390fd5b6004600082815260200190815260200160002060006101000a81549073ffffffffffffffffffffffffffffffffffffffff02191690556001600360008573ffffffffffffffffffffffffffffffffffffffff1673ffffffffffffffffffffffffffffffffffffffff168152602001908152602001600020600082825403925050819055506001600360008473ffffffffffffffffffffffffffffffffffffffff1673ffffffffffffffffffffffffffffffffffffffff16815260200190815260200160002060008282540192505081905550816002600083815260200190815260200160002060006101000a81548173ffffffffffffffffffffffffffffffffffffffff021916908373ffffffffffffffffffffffffffffffffffffffff160217905550808273ffffffffffffffffffffffffffffffffffffffff168473ffffffffffffffffffffffffffffffffffffffff167fddf252ad1be2c89b69c2b068fc378daa952ba7f163c4a11628f55a4df523b3ef60405160405180910390a46111fe838383600161181d565b505050565b6001816000016000828254019250508190555050565b600081600001549050919050565b600073ffffffffffffffffffffffffffffffffffffffff168273ffffffffffffffffffffffffffffffffffffffff1603611296576040517f08c379a000000000000000000000000000000000000000000000000000000000815260040161128d90612c08565b60405180910390fd5b61129f816117d6565b156112df576040517f08c379a00000000000000000000000000000000000000000000000000000000081526004016112d690612c74565b60405180910390fd5b6112ed600083836001611817565b6112f6816117d6565b15611336576040517f08c379a000000000000000000000000000000000000000000000000000000000815260040161132d90612c74565b60405180910390fd5b6001600360008473ffffffffffffffffffffffffffffffffffffffff1673ffffffffffffffffffffffffffffffffffffffff16815260200190815260200160002060008282540192505081905550816002600083815260200190815260200160002060006101000a81548173ffffffffffffffffffffffffffffffffffffffff021916908373ffffffffffffffffffffffffffffffffffffffff160217905550808273ffffffffffffffffffffffffffffffffffffffff16600073ffffffffffffffffffffffffffffffffffffffff167fddf252ad1be2c89b69c2b068fc378daa952ba7f163c4a11628f55a4df523b3ef60405160405180910390a461144060008383600161181d565b5050565b61144d826117d6565b61148c576040517f08c379a000000000000000000000000000000000000000000000000000000000815260040161148390612d06565b60405180910390fd5b806006600084815260200190815260200160002090816114ac919061274b565b507ff8e1a15aba9398e019f0b49df1a4fde98ee17ae345cb5f6b5e2c27f5033e8ce7826040516114dc91906120a9565b60405180910390a15050565b60006002600083815260200190815260200160002060009054906101000a900473ffffffffffffffffffffffffffffffffffffffff169050919050565b8173ffffffffffffffffffffffffffffffffffffffff168373ffffffffffffffffffffffffffffffffffffffff1603611593576040517f08c379a000000000000000000000000000000000000000000000000000000000815260040161158a90612d72565b60405180910390fd5b80600560008573ffffffffffffffffffffffffffffffffffffffff1673ffffffffffffffffffffffffffffffffffffffff16815260200190815260200160002060008473ffffffffffffffffffffffffffffffffffffffff1673ffffffffffffffffffffffffffffffffffffffff16815260200190815260200160002060006101000a81548160ff0219169083151502179055508173ffffffffffffffffffffffffffffffffffffffff168373ffffffffffffffffffffffffffffffffffffffff167f17307eab39ab6107e8899845ad3d59bd9653f200f220920489ca2b5937696c31836040516116849190611ca2565b60405180910390a3505050565b61169c848484610f0a565b6116a884848484611823565b6116e7576040517f08c379a00000000000000000000000000000000000000000000000000000000081526004016116de90612e04565b60405180910390fd5b50505050565b606060405180602001604052806000815250905090565b606061170f82610d69565b60006117196116ed565b905060008151116117395760405180602001604052806000815250611764565b80611743846119aa565b604051602001611754929190612a74565b6040516020818303038152906040525b915050919050565b60007f01ffc9a7000000000000000000000000000000000000000000000000000000007bffffffffffffffffffffffffffffffffffffffffffffffffffffffff1916827bffffffffffffffffffffffffffffffffffffffffffffffffffffffff1916149050919050565b60008073ffffffffffffffffffffffffffffffffffffffff166117f8836114e8565b73ffffffffffffffffffffffffffffffffffffffff1614159050919050565b50505050565b50505050565b60006118448473ffffffffffffffffffffffffffffffffffffffff16611a78565b1561199d578373ffffffffffffffffffffffffffffffffffffffff1663150b7a0261186d610db4565b8786866040518563ffffffff1660e01b815260040161188f9493929190612e79565b6020604051808303816000875af19250505080156118cb57506040513d601f19601f820116820180604052508101906118c89190612eda565b60015b61194d573d80600081146118fb576040519150601f19603f3d011682016040523d82523d6000602084013e611900565b606091505b506000815103611945576040517f08c379a000000000000000000000000000000000000000000000000000000000815260040161193c90612e04565b60405180910390fd5b805181602001fd5b63150b7a0260e01b7bffffffffffffffffffffffffffffffffffffffffffffffffffffffff1916817bffffffffffffffffffffffffffffffffffffffffffffffffffffffff1916149150506119a2565b600190505b949350505050565b6060600060016119b984611a9b565b01905060008167ffffffffffffffff8111156119d8576119d7611ef7565b5b6040519080825280601f01601f191660200182016040528015611a0a5781602001600182028036833780820191505090505b509050600082602001820190505b600115611a6d578080600190039150507f3031323334353637383961626364656600000000000000000000000000000000600a86061a8153600a8581611a6157611a60612f07565b5b04945060008503611a18575b819350505050919050565b6000808273ffffffffffffffffffffffffffffffffffffffff163b119050919050565b600080600090507a184f03e93ff9f4daa797ed6e38ed64bf6a1f0100000000000000008310611af9577a184f03e93ff9f4daa797ed6e38ed64bf6a1f0100000000000000008381611aef57611aee612f07565b5b0492506040810190505b6d04ee2d6d415b85acef81000000008310611b36576d04ee2d6d415b85acef81000000008381611b2c57611b2b612f07565b5b0492506020810190505b662386f26fc100008310611b6557662386f26fc100008381611b5b57611b5a612f07565b5b0492506010810190505b6305f5e1008310611b8e576305f5e1008381611b8457611b83612f07565b5b0492506008810190505b6127108310611bb3576127108381611ba957611ba8612f07565b5b0492506004810190505b60648310611bd65760648381611bcc57611bcb612f07565b5b0492506002810190505b600a8310611be5576001810190505b80915050919050565b6000604051905090565b600080fd5b600080fd5b60007fffffffff0000000000000000000000000000000000000000000000000000000082169050919050565b611c3781611c02565b8114611c4257600080fd5b50565b600081359050611c5481611c2e565b92915050565b600060208284031215611c7057611c6f611bf8565b5b6000611c7e84828501611c45565b91505092915050565b60008115159050919050565b611c9c81611c87565b82525050565b6000602082019050611cb76000830184611c93565b92915050565b600081519050919050565b600082825260208201905092915050565b60005b83811015611cf7578082015181840152602081019050611cdc565b60008484015250505050565b6000601f19601f8301169050919050565b6000611d1f82611cbd565b611d298185611cc8565b9350611d39818560208601611cd9565b611d4281611d03565b840191505092915050565b60006020820190508181036000830152611d678184611d14565b905092915050565b6000819050919050565b611d8281611d6f565b8114611d8d57600080fd5b50565b600081359050611d9f81611d79565b92915050565b600060208284031215611dbb57611dba611bf8565b5b6000611dc984828501611d90565b91505092915050565b600073ffffffffffffffffffffffffffffffffffffffff82169050919050565b6000611dfd82611dd2565b9050919050565b611e0d81611df2565b82525050565b6000602082019050611e286000830184611e04565b92915050565b611e3781611df2565b8114611e4257600080fd5b50565b600081359050611e5481611e2e565b92915050565b60008060408385031215611e7157611e70611bf8565b5b6000611e7f85828601611e45565b9250506020611e9085828601611d90565b9150509250929050565b600080600060608486031215611eb357611eb2611bf8565b5b6000611ec186828701611e45565b9350506020611ed286828701611e45565b9250506040611ee386828701611d90565b9150509250925092565b600080fd5b600080fd5b7f4e487b7100000000000000000000000000000000000000000000000000000000600052604160045260246000fd5b611f2f82611d03565b810181811067ffffffffffffffff82111715611f4e57611f4d611ef7565b5b80604052505050565b6000611f61611bee565b9050611f6d8282611f26565b919050565b600067ffffffffffffffff821115611f8d57611f8c611ef7565b5b611f9682611d03565b9050602081019050919050565b82818337600083830152505050565b6000611fc5611fc084611f72565b611f57565b905082815260208101848484011115611fe157611fe0611ef2565b5b611fec848285611fa3565b509392505050565b600082601f83011261200957612008611eed565b5b8135612019848260208601611fb2565b91505092915050565b6000806040838503121561203957612038611bf8565b5b600083013567ffffffffffffffff81111561205757612056611bfd565b5b61206385828601611ff4565b925050602083013567ffffffffffffffff81111561208457612083611bfd565b5b61209085828601611ff4565b9150509250929050565b6120a381611d6f565b82525050565b60006020820190506120be600083018461209a565b92915050565b6000602082840312156120da576120d9611bf8565b5b60006120e884828501611e45565b91505092915050565b6120fa81611c87565b811461210557600080fd5b50565b600081359050612117816120f1565b92915050565b6000806040838503121561213457612133611bf8565b5b600061214285828601611e45565b925050602061215385828601612108565b9150509250929050565b600067ffffffffffffffff82111561217857612177611ef7565b5b61218182611d03565b9050602081019050919050565b60006121a161219c8461215d565b611f57565b9050828152602081018484840111156121bd576121bc611ef2565b5b6121c8848285611fa3565b509392505050565b600082601f8301126121e5576121e4611eed565b5b81356121f584826020860161218e565b91505092915050565b6000806000806080858703121561221857612217611bf8565b5b600061222687828801611e45565b945050602061223787828801611e45565b935050604061224887828801611d90565b925050606085013567ffffffffffffffff81111561226957612268611bfd565b5b612275878288016121d0565b91505092959194509250565b6000806040838503121561229857612297611bf8565b5b60006122a685828601611d90565b925050602083013567ffffffffffffffff8111156122c7576122c6611bfd565b5b6122d385828601611ff4565b9150509250929050565b600080604083850312156122f4576122f3611bf8565b5b600061230285828601611e45565b925050602061231385828601611e45565b9150509250929050565b7f4e487b7100000000000000000000000000000000000000000000000000000000600052602260045260246000fd5b6000600282049050600182168061236457607f821691505b6020821081036123775761237661231d565b5b50919050565b7f4552433732313a20617070726f76616c20746f2063757272656e74206f776e6560008201527f7200000000000000000000000000000000000000000000000000000000000000602082015250565b60006123d9602183611cc8565b91506123e48261237d565b604082019050919050565b60006020820190508181036000830152612408816123cc565b9050919050565b7f4552433732313a20617070726f76652063616c6c6572206973206e6f7420746f60008201527f6b656e206f776e6572206f7220617070726f76656420666f7220616c6c000000602082015250565b600061246b603d83611cc8565b91506124768261240f565b604082019050919050565b6000602082019050818103600083015261249a8161245e565b9050919050565b7f4552433732313a2063616c6c6572206973206e6f7420746f6b656e206f776e6560008201527f72206f7220617070726f76656400000000000000000000000000000000000000602082015250565b60006124fd602d83611cc8565b9150612508826124a1565b604082019050919050565b6000602082019050818103600083015261252c816124f0565b9050919050565b7f61646472657373206e6f7420616c6c6f77656420746f206d696e740000000000600082015250565b6000612569601b83611cc8565b915061257482612533565b602082019050919050565b600060208201905081810360008301526125988161255c565b9050919050565b60008190508160005260206000209050919050565b60006020601f8301049050919050565b600082821b905092915050565b6000600883026126017fffffffffffffffffffffffffffffffffffffffffffffffffffffffffffffffff826125c4565b61260b86836125c4565b95508019841693508086168417925050509392505050565b6000819050919050565b600061264861264361263e84611d6f565b612623565b611d6f565b9050919050565b6000819050919050565b6126628361262d565b61267661266e8261264f565b8484546125d1565b825550505050565b600090565b61268b61267e565b612696818484612659565b505050565b5b818110156126ba576126af600082612683565b60018101905061269c565b5050565b601f8211156126ff576126d08161259f565b6126d9846125b4565b810160208510156126e8578190505b6126fc6126f4856125b4565b83018261269b565b50505b505050565b600082821c905092915050565b600061272260001984600802612704565b1980831691505092915050565b600061273b8383612711565b9150826002028217905092915050565b61275482611cbd565b67ffffffffffffffff81111561276d5761276c611ef7565b5b612777825461234c565b6127828282856126be565b600060209050601f8311600181146127b557600084156127a3578287015190505b6127ad858261272f565b865550612815565b601f1984166127c38661259f565b60005b828110156127eb578489015182556001820191506020850194506020810190506127c6565b868310156128085784890151612804601f891682612711565b8355505b6001600288020188555050505b505050505050565b7f4552433732313a20696e76616c696420746f6b656e2049440000000000000000600082015250565b6000612853601883611cc8565b915061285e8261281d565b602082019050919050565b6000602082019050818103600083015261288281612846565b9050919050565b7f4552433732313a2061646472657373207a65726f206973206e6f74206120766160008201527f6c6964206f776e65720000000000000000000000000000000000000000000000602082015250565b60006128e5602983611cc8565b91506128f082612889565b604082019050919050565b60006020820190508181036000830152612914816128d8565b9050919050565b600081905092915050565b600061293182611cbd565b61293b818561291b565b935061294b818560208601611cd9565b80840191505092915050565b60006129638284612926565b915081905092915050565b6000815461297b8161234c565b612985818661291b565b945060018216600081146129a057600181146129b5576129e8565b60ff19831686528115158202860193506129e8565b6129be8561259f565b60005b838110156129e0578154818901526001820191506020810190506129c1565b838801955050505b50505092915050565b60006129fd828461296e565b915081905092915050565b7f4e6f206e667420666f756e640000000000000000000000000000000000000000600082015250565b6000612a3e600c83611cc8565b9150612a4982612a08565b602082019050919050565b60006020820190508181036000830152612a6d81612a31565b9050919050565b6000612a808285612926565b9150612a8c8284612926565b91508190509392505050565b7f4552433732313a207472616e736665722066726f6d20696e636f72726563742060008201527f6f776e6572000000000000000000000000000000000000000000000000000000602082015250565b6000612af4602583611cc8565b9150612aff82612a98565b604082019050919050565b60006020820190508181036000830152612b2381612ae7565b9050919050565b7f4552433732313a207472616e7366657220746f20746865207a65726f2061646460008201527f7265737300000000000000000000000000000000000000000000000000000000602082015250565b6000612b86602483611cc8565b9150612b9182612b2a565b604082019050919050565b60006020820190508181036000830152612bb581612b79565b9050919050565b7f4552433732313a206d696e7420746f20746865207a65726f2061646472657373600082015250565b6000612bf2602083611cc8565b9150612bfd82612bbc565b602082019050919050565b60006020820190508181036000830152612c2181612be5565b9050919050565b7f4552433732313a20746f6b656e20616c7265616479206d696e74656400000000600082015250565b6000612c5e601c83611cc8565b9150612c6982612c28565b602082019050919050565b60006020820190508181036000830152612c8d81612c51565b9050919050565b7f45524337323155524953746f726167653a2055524920736574206f66206e6f6e60008201527f6578697374656e7420746f6b656e000000000000000000000000000000000000602082015250565b6000612cf0602e83611cc8565b9150612cfb82612c94565b604082019050919050565b60006020820190508181036000830152612d1f81612ce3565b9050919050565b7f4552433732313a20617070726f766520746f2063616c6c657200000000000000600082015250565b6000612d5c601983611cc8565b9150612d6782612d26565b602082019050919050565b60006020820190508181036000830152612d8b81612d4f565b9050919050565b7f4552433732313a207472616e7366657220746f206e6f6e20455243373231526560008201527f63656976657220696d706c656d656e7465720000000000000000000000000000602082015250565b6000612dee603283611cc8565b9150612df982612d92565b604082019050919050565b60006020820190508181036000830152612e1d81612de1565b9050919050565b600081519050919050565b600082825260208201905092915050565b6000612e4b82612e24565b612e558185612e2f565b9350612e65818560208601611cd9565b612e6e81611d03565b840191505092915050565b6000608082019050612e8e6000830187611e04565b612e9b6020830186611e04565b612ea8604083018561209a565b8181036060830152612eba8184612e40565b905095945050505050565b600081519050612ed481611c2e565b92915050565b600060208284031215612ef057612eef611bf8565b5b6000612efe84828501612ec5565b91505092915050565b7f4e487b7100000000000000000000000000000000000000000000000000000000600052601260045260246000fdfea2646970667358221220051fa23cc907dc035978a72b6262ec6a18782d9499f1985e104fb92808a17d5e64736f6c63430008120033",
  "linkReferences": {},
  "deployedLinkReferences": {}
}