{
  "_format": "hh-sol-artifact-1",
  "contractName": "NFTMarketplace",
  "sourceName": "src/web3/contracts/Market.sol",
  "abi": [
    {
      "inputs": [],
      "stateMutability": "nonpayable",
      "type": "constructor"
    },
    {
      "anonymous": false,
      "inputs": [
        {
          "indexed": true,
          "internalType": "uint256",
          "name": "id",
          "type": "uint256"
        },
        {
          "indexed": true,
          "internalType": "address",
          "name": "nftContract",
          "type": "address"
        },
        {
          "indexed": true,
          "internalType": "uint256",
          "name": "tokenId",
          "type": "uint256"
        },
        {
          "indexed": false,
          "internalType": "address",
          "name": "seller",
          "type": "address"
        },
        {
          "indexed": false,
          "internalType": "address",
          "name": "buyer",
          "type": "address"
        },
        {
          "indexed": false,
          "internalType": "uint256",
          "name": "price",
          "type": "uint256"
        },
        {
          "indexed": false,
          "internalType": "enum NFTMarketplace.State",
          "name": "state",
          "type": "uint8"
        }
      ],
      "name": "MarketItemCreated",
      "type": "event"
    },
    {
      "anonymous": false,
      "inputs": [
        {
          "indexed": true,
          "internalType": "uint256",
          "name": "id",
          "type": "uint256"
        },
        {
          "indexed": true,
          "internalType": "address",
          "name": "nftContract",
          "type": "address"
        },
        {
          "indexed": true,
          "internalType": "uint256",
          "name": "tokenId",
          "type": "uint256"
        },
        {
          "indexed": false,
          "internalType": "address",
          "name": "seller",
          "type": "address"
        },
        {
          "indexed": false,
          "internalType": "address",
          "name": "buyer",
          "type": "address"
        },
        {
          "indexed": false,
          "internalType": "uint256",
          "name": "price",
          "type": "uint256"
        },
        {
          "indexed": false,
          "internalType": "enum NFTMarketplace.State",
          "name": "state",
          "type": "uint8"
        }
      ],
      "name": "MarketItemSold",
      "type": "event"
    },
    {
      "inputs": [
        {
          "internalType": "address",
          "name": "nftContract",
          "type": "address"
        },
        {
          "internalType": "uint256",
          "name": "tokenId",
          "type": "uint256"
        },
        {
          "internalType": "uint256",
          "name": "price",
          "type": "uint256"
        }
      ],
      "name": "createMarketItem",
      "outputs": [],
      "stateMutability": "payable",
      "type": "function"
    },
    {
      "inputs": [
        {
          "internalType": "address",
          "name": "nftContract",
          "type": "address"
        },
        {
          "internalType": "uint256",
          "name": "id",
          "type": "uint256"
        }
      ],
      "name": "createMarketSale",
      "outputs": [],
      "stateMutability": "payable",
      "type": "function"
    },
    {
      "inputs": [
        {
          "internalType": "uint256",
          "name": "itemId",
          "type": "uint256"
        },
        {
          "internalType": "address",
          "name": "senderAddress",
          "type": "address"
        }
      ],
      "name": "deleteMarketItem",
      "outputs": [],
      "stateMutability": "nonpayable",
      "type": "function"
    },
    {
      "inputs": [],
      "name": "fetchActiveItems",
      "outputs": [
        {
          "components": [
            {
              "internalType": "uint256",
              "name": "id",
              "type": "uint256"
            },
            {
              "internalType": "address",
              "name": "nftContract",
              "type": "address"
            },
            {
              "internalType": "uint256",
              "name": "tokenId",
              "type": "uint256"
            },
            {
              "internalType": "address payable",
              "name": "seller",
              "type": "address"
            },
            {
              "internalType": "address payable",
              "name": "buyer",
              "type": "address"
            },
            {
              "internalType": "uint256",
              "name": "price",
              "type": "uint256"
            },
            {
              "internalType": "enum NFTMarketplace.State",
              "name": "state",
              "type": "uint8"
            }
          ],
          "internalType": "struct NFTMarketplace.MarketItem[]",
          "name": "",
          "type": "tuple[]"
        }
      ],
      "stateMutability": "view",
      "type": "function"
    },
    {
      "inputs": [],
      "name": "fetchMyCreatedItems",
      "outputs": [
        {
          "components": [
            {
              "internalType": "uint256",
              "name": "id",
              "type": "uint256"
            },
            {
              "internalType": "address",
              "name": "nftContract",
              "type": "address"
            },
            {
              "internalType": "uint256",
              "name": "tokenId",
              "type": "uint256"
            },
            {
              "internalType": "address payable",
              "name": "seller",
              "type": "address"
            },
            {
              "internalType": "address payable",
              "name": "buyer",
              "type": "address"
            },
            {
              "internalType": "uint256",
              "name": "price",
              "type": "uint256"
            },
            {
              "internalType": "enum NFTMarketplace.State",
              "name": "state",
              "type": "uint8"
            }
          ],
          "internalType": "struct NFTMarketplace.MarketItem[]",
          "name": "",
          "type": "tuple[]"
        }
      ],
      "stateMutability": "view",
      "type": "function"
    },
    {
      "inputs": [],
      "name": "fetchMyPurchasedItems",
      "outputs": [
        {
          "components": [
            {
              "internalType": "uint256",
              "name": "id",
              "type": "uint256"
            },
            {
              "internalType": "address",
              "name": "nftContract",
              "type": "address"
            },
            {
              "internalType": "uint256",
              "name": "tokenId",
              "type": "uint256"
            },
            {
              "internalType": "address payable",
              "name": "seller",
              "type": "address"
            },
            {
              "internalType": "address payable",
              "name": "buyer",
              "type": "address"
            },
            {
              "internalType": "uint256",
              "name": "price",
              "type": "uint256"
            },
            {
              "internalType": "enum NFTMarketplace.State",
              "name": "state",
              "type": "uint8"
            }
          ],
          "internalType": "struct NFTMarketplace.MarketItem[]",
          "name": "",
          "type": "tuple[]"
        }
      ],
      "stateMutability": "view",
      "type": "function"
    },
    {
      "inputs": [],
      "name": "getListingFee",
      "outputs": [
        {
          "internalType": "uint256",
          "name": "",
          "type": "uint256"
        }
      ],
      "stateMutability": "view",
      "type": "function"
    },
    {
      "inputs": [],
      "name": "listingFee",
      "outputs": [
        {
          "internalType": "uint256",
          "name": "",
          "type": "uint256"
        }
      ],
      "stateMutability": "view",
      "type": "function"
    },
    {
      "inputs": [],
      "name": "marketowner",
      "outputs": [
        {
          "internalType": "address payable",
          "name": "",
          "type": "address"
        }
      ],
      "stateMutability": "view",
      "type": "function"
    }
  ],
  "bytecode": "0x60806040526658d15e1762800060045534801561001b57600080fd5b50600160008190555033600360006101000a81548173ffffffffffffffffffffffffffffffffffffffff021916908373ffffffffffffffffffffffffffffffffffffffff16021790555061212a806100746000396000f3fe6080604052600436106100865760003560e01c8063ab76ce1611610059578063ab76ce1614610128578063b8fe6abe14610153578063c23b139e1461017e578063d71240a31461019a578063ef8da9da146101c357610086565b8063332b386b1461008b57806358eb2df5146100b65780635e385b92146100d25780636a1b7ecc146100fd575b600080fd5b34801561009757600080fd5b506100a06101ee565b6040516100ad9190611908565b60405180910390f35b6100d060048036038101906100cb9190611987565b6101ff565b005b3480156100de57600080fd5b506100e76105b5565b6040516100f491906119e9565b60405180910390f35b34801561010957600080fd5b506101126105db565b60405161011f9190611a13565b60405180910390f35b34801561013457600080fd5b5061013d6105e1565b60405161014a9190611908565b60405180910390f35b34801561015f57600080fd5b506101686105f2565b6040516101759190611a13565b60405180910390f35b61019860048036038101906101939190611a2e565b6105fc565b005b3480156101a657600080fd5b506101c160048036038101906101bc9190611a6e565b6109c3565b005b3480156101cf57600080fd5b506101d8610db4565b6040516101e59190611908565b60405180910390f35b60606101fa6000610dc5565b905090565b610207611342565b6000811161024a576040517f08c379a000000000000000000000000000000000000000000000000000000000815260040161024190611b0b565b60405180910390fd5b600454341461028e576040517f08c379a000000000000000000000000000000000000000000000000000000000815260040161028590611b77565b60405180910390fd5b3073ffffffffffffffffffffffffffffffffffffffff168373ffffffffffffffffffffffffffffffffffffffff1663081812fc846040518263ffffffff1660e01b81526004016102de9190611a13565b602060405180830381865afa1580156102fb573d6000803e3d6000fd5b505050506040513d601f19601f8201168201806040525081019061031f9190611bac565b73ffffffffffffffffffffffffffffffffffffffff1614610375576040517f08c379a000000000000000000000000000000000000000000000000000000000815260040161036c90611c25565b60405180910390fd5b61037f6001611391565b600061038b60016113a7565b90506040518060e001604052808281526020018573ffffffffffffffffffffffffffffffffffffffff1681526020018481526020013373ffffffffffffffffffffffffffffffffffffffff168152602001600073ffffffffffffffffffffffffffffffffffffffff1681526020018381526020016000600281111561041357610412611780565b5b815250600560008381526020019081526020016000206000820151816000015560208201518160010160006101000a81548173ffffffffffffffffffffffffffffffffffffffff021916908373ffffffffffffffffffffffffffffffffffffffff1602179055506040820151816002015560608201518160030160006101000a81548173ffffffffffffffffffffffffffffffffffffffff021916908373ffffffffffffffffffffffffffffffffffffffff16021790555060808201518160040160006101000a81548173ffffffffffffffffffffffffffffffffffffffff021916908373ffffffffffffffffffffffffffffffffffffffff16021790555060a0820151816005015560c08201518160060160006101000a81548160ff0219169083600281111561054757610546611780565b5b0217905550905050828473ffffffffffffffffffffffffffffffffffffffff16827fb0a8dcfc08f1150d20def3c46440be585f61cce1bdbb0fdf16bc597f471c6e7033600087600060405161059f9493929190611c63565b60405180910390a4506105b06113b5565b505050565b600360009054906101000a900473ffffffffffffffffffffffffffffffffffffffff1681565b60045481565b60606105ed6001610dc5565b905090565b6000600454905090565b610604611342565b600060056000838152602001908152602001600020905060008160050154905060008260020154905081341461066f576040517f08c379a000000000000000000000000000000000000000000000000000000000815260040161066690611cf4565b60405180910390fd5b3073ffffffffffffffffffffffffffffffffffffffff168573ffffffffffffffffffffffffffffffffffffffff1663081812fc836040518263ffffffff1660e01b81526004016106bf9190611a13565b602060405180830381865afa1580156106dc573d6000803e3d6000fd5b505050506040513d601f19601f820116820180604052508101906107009190611bac565b73ffffffffffffffffffffffffffffffffffffffff1614610756576040517f08c379a000000000000000000000000000000000000000000000000000000000815260040161074d90611c25565b60405180910390fd5b8473ffffffffffffffffffffffffffffffffffffffff166323b872dd8460030160009054906101000a900473ffffffffffffffffffffffffffffffffffffffff1633846040518463ffffffff1660e01b81526004016107b793929190611d73565b600060405180830381600087803b1580156107d157600080fd5b505af11580156107e5573d6000803e3d6000fd5b50505050600360009054906101000a900473ffffffffffffffffffffffffffffffffffffffff1673ffffffffffffffffffffffffffffffffffffffff166108fc6004549081150290604051600060405180830381858888f19350505050158015610853573d6000803e3d6000fd5b508260030160009054906101000a900473ffffffffffffffffffffffffffffffffffffffff1673ffffffffffffffffffffffffffffffffffffffff166108fc349081150290604051600060405180830381858888f193505050501580156108be573d6000803e3d6000fd5b50338360040160006101000a81548173ffffffffffffffffffffffffffffffffffffffff021916908373ffffffffffffffffffffffffffffffffffffffff16021790555060018360060160006101000a81548160ff0219169083600281111561092a57610929611780565b5b02179055506109396002611391565b808573ffffffffffffffffffffffffffffffffffffffff16857f064a9702da2c4a0a9af4cabda06e4715203ed7b0b3bb67eca6d3168e1c519bff8660030160009054906101000a900473ffffffffffffffffffffffffffffffffffffffff16338760016040516109ac9493929190611daa565b60405180910390a45050506109bf6113b5565b5050565b6109cb611342565b6109d560016113a7565b821115610a17576040517f08c379a0000000000000000000000000000000000000000000000000000000008152600401610a0e90611e3b565b60405180910390fd5b60006002811115610a2b57610a2a611780565b5b6005600084815260200190815260200160002060060160009054906101000a900460ff166002811115610a6157610a60611780565b5b14610aa1576040517f08c379a0000000000000000000000000000000000000000000000000000000008152600401610a9890611ea7565b60405180910390fd5b60006005600084815260200190815260200160002090508173ffffffffffffffffffffffffffffffffffffffff168160010160009054906101000a900473ffffffffffffffffffffffffffffffffffffffff1673ffffffffffffffffffffffffffffffffffffffff16636352211e83600201546040518263ffffffff1660e01b8152600401610b309190611a13565b602060405180830381865afa158015610b4d573d6000803e3d6000fd5b505050506040513d601f19601f82011682018060405250810190610b719190611bac565b73ffffffffffffffffffffffffffffffffffffffff1614610bc7576040517f08c379a0000000000000000000000000000000000000000000000000000000008152600401610bbe90611f13565b60405180910390fd5b3073ffffffffffffffffffffffffffffffffffffffff168160010160009054906101000a900473ffffffffffffffffffffffffffffffffffffffff1673ffffffffffffffffffffffffffffffffffffffff1663081812fc83600201546040518263ffffffff1660e01b8152600401610c3f9190611a13565b602060405180830381865afa158015610c5c573d6000803e3d6000fd5b505050506040513d601f19601f82011682018060405250810190610c809190611bac565b73ffffffffffffffffffffffffffffffffffffffff1614610cd6576040517f08c379a0000000000000000000000000000000000000000000000000000000008152600401610ccd90611c25565b60405180910390fd5b60028160060160006101000a81548160ff02191690836002811115610cfe57610cfd611780565b5b021790555080600201548160010160009054906101000a900473ffffffffffffffffffffffffffffffffffffffff1673ffffffffffffffffffffffffffffffffffffffff16847f064a9702da2c4a0a9af4cabda06e4715203ed7b0b3bb67eca6d3168e1c519bff8460030160009054906101000a900473ffffffffffffffffffffffffffffffffffffffff166000806002604051610d9f9493929190611f6e565b60405180910390a450610db06113b5565b5050565b6060610dc06002610dc5565b905090565b60606000610dd360016113a7565b9050600080600190505b828111610f8d57610f66600560008381526020019081526020016000206040518060e0016040529081600082015481526020016001820160009054906101000a900473ffffffffffffffffffffffffffffffffffffffff1673ffffffffffffffffffffffffffffffffffffffff1673ffffffffffffffffffffffffffffffffffffffff168152602001600282015481526020016003820160009054906101000a900473ffffffffffffffffffffffffffffffffffffffff1673ffffffffffffffffffffffffffffffffffffffff1673ffffffffffffffffffffffffffffffffffffffff1681526020016004820160009054906101000a900473ffffffffffffffffffffffffffffffffffffffff1673ffffffffffffffffffffffffffffffffffffffff1673ffffffffffffffffffffffffffffffffffffffff168152602001600582015481526020016006820160009054906101000a900460ff166002811115610f4a57610f49611780565b5b6002811115610f5c57610f5b611780565b5b81525050866113bf565b15610f7a578180610f7690611fe2565b9250505b8080610f8590611fe2565b915050610ddd565b506000808267ffffffffffffffff811115610fab57610faa61202a565b5b604051908082528060200260200182016040528015610fe457816020015b610fd1611648565b815260200190600190039081610fc95790505b5090506000600190505b84811161133557611177600560008381526020019081526020016000206040518060e0016040529081600082015481526020016001820160009054906101000a900473ffffffffffffffffffffffffffffffffffffffff1673ffffffffffffffffffffffffffffffffffffffff1673ffffffffffffffffffffffffffffffffffffffff168152602001600282015481526020016003820160009054906101000a900473ffffffffffffffffffffffffffffffffffffffff1673ffffffffffffffffffffffffffffffffffffffff1673ffffffffffffffffffffffffffffffffffffffff1681526020016004820160009054906101000a900473ffffffffffffffffffffffffffffffffffffffff1673ffffffffffffffffffffffffffffffffffffffff1673ffffffffffffffffffffffffffffffffffffffff168152602001600582015481526020016006820160009054906101000a900460ff16600281111561115b5761115a611780565b5b600281111561116d5761116c611780565b5b81525050886113bf565b1561132257600560008281526020019081526020016000206040518060e0016040529081600082015481526020016001820160009054906101000a900473ffffffffffffffffffffffffffffffffffffffff1673ffffffffffffffffffffffffffffffffffffffff1673ffffffffffffffffffffffffffffffffffffffff168152602001600282015481526020016003820160009054906101000a900473ffffffffffffffffffffffffffffffffffffffff1673ffffffffffffffffffffffffffffffffffffffff1673ffffffffffffffffffffffffffffffffffffffff1681526020016004820160009054906101000a900473ffffffffffffffffffffffffffffffffffffffff1673ffffffffffffffffffffffffffffffffffffffff1673ffffffffffffffffffffffffffffffffffffffff168152602001600582015481526020016006820160009054906101000a900460ff1660028111156112df576112de611780565b5b60028111156112f1576112f0611780565b5b8152505082848151811061130857611307612059565b5b6020026020010181905250828061131e90611fe2565b9350505b808061132d90611fe2565b915050610fee565b5080945050505050919050565b600260005403611387576040517f08c379a000000000000000000000000000000000000000000000000000000000815260040161137e906120d4565b60405180910390fd5b6002600081905550565b6001816000016000828254019250508190555050565b600081600001549050919050565b6001600081905550565b60006002808111156113d4576113d3611780565b5b8260028111156113e7576113e6611780565b5b03611468573373ffffffffffffffffffffffffffffffffffffffff16836060015173ffffffffffffffffffffffffffffffffffffffff16148015611453575060028081111561143957611438611780565b5b8360c0015160028111156114505761144f611780565b5b14155b61145e576000611461565b60015b9050611642565b6001600281111561147c5761147b611780565b5b82600281111561148f5761148e611780565b5b036114dc573373ffffffffffffffffffffffffffffffffffffffff16836080015173ffffffffffffffffffffffffffffffffffffffff16146114d25760006114d5565b60015b9050611642565b600060028111156114f0576114ef611780565b5b82600281111561150357611502611780565b5b0361163d57600073ffffffffffffffffffffffffffffffffffffffff16836080015173ffffffffffffffffffffffffffffffffffffffff1614801561157057506000600281111561155757611556611780565b5b8360c00151600281111561156e5761156d611780565b5b145b801561162857503073ffffffffffffffffffffffffffffffffffffffff16836020015173ffffffffffffffffffffffffffffffffffffffff1663081812fc85604001516040518263ffffffff1660e01b81526004016115cf9190611a13565b602060405180830381865afa1580156115ec573d6000803e3d6000fd5b505050506040513d601f19601f820116820180604052508101906116109190611bac565b73ffffffffffffffffffffffffffffffffffffffff16145b611633576000611636565b60015b9050611642565b600090505b92915050565b6040518060e0016040528060008152602001600073ffffffffffffffffffffffffffffffffffffffff16815260200160008152602001600073ffffffffffffffffffffffffffffffffffffffff168152602001600073ffffffffffffffffffffffffffffffffffffffff16815260200160008152602001600060028111156116d3576116d2611780565b5b81525090565b600081519050919050565b600082825260208201905092915050565b6000819050602082019050919050565b6000819050919050565b61171881611705565b82525050565b600073ffffffffffffffffffffffffffffffffffffffff82169050919050565b60006117498261171e565b9050919050565b6117598161173e565b82525050565b600061176a8261171e565b9050919050565b61177a8161175f565b82525050565b7f4e487b7100000000000000000000000000000000000000000000000000000000600052602160045260246000fd5b600381106117c0576117bf611780565b5b50565b60008190506117d1826117af565b919050565b60006117e1826117c3565b9050919050565b6117f1816117d6565b82525050565b60e08201600082015161180d600085018261170f565b5060208201516118206020850182611750565b506040820151611833604085018261170f565b5060608201516118466060850182611771565b5060808201516118596080850182611771565b5060a082015161186c60a085018261170f565b5060c082015161187f60c08501826117e8565b50505050565b600061189183836117f7565b60e08301905092915050565b6000602082019050919050565b60006118b5826116d9565b6118bf81856116e4565b93506118ca836116f5565b8060005b838110156118fb5781516118e28882611885565b97506118ed8361189d565b9250506001810190506118ce565b5085935050505092915050565b6000602082019050818103600083015261192281846118aa565b905092915050565b600080fd5b6119388161173e565b811461194357600080fd5b50565b6000813590506119558161192f565b92915050565b61196481611705565b811461196f57600080fd5b50565b6000813590506119818161195b565b92915050565b6000806000606084860312156119a05761199f61192a565b5b60006119ae86828701611946565b93505060206119bf86828701611972565b92505060406119d086828701611972565b9150509250925092565b6119e38161175f565b82525050565b60006020820190506119fe60008301846119da565b92915050565b611a0d81611705565b82525050565b6000602082019050611a286000830184611a04565b92915050565b60008060408385031215611a4557611a4461192a565b5b6000611a5385828601611946565b9250506020611a6485828601611972565b9150509250929050565b60008060408385031215611a8557611a8461192a565b5b6000611a9385828601611972565b9250506020611aa485828601611946565b9150509250929050565b600082825260208201905092915050565b7f5072696365206d757374206265206174206c6561737420312077656900000000600082015250565b6000611af5601c83611aae565b9150611b0082611abf565b602082019050919050565b60006020820190508181036000830152611b2481611ae8565b9050919050565b7f466565206d75737420626520657175616c20746f206c697374696e6720666565600082015250565b6000611b61602083611aae565b9150611b6c82611b2b565b602082019050919050565b60006020820190508181036000830152611b9081611b54565b9050919050565b600081519050611ba68161192f565b92915050565b600060208284031215611bc257611bc161192a565b5b6000611bd084828501611b97565b91505092915050565b7f4e4654206d75737420626520617070726f76656420746f206d61726b65740000600082015250565b6000611c0f601e83611aae565b9150611c1a82611bd9565b602082019050919050565b60006020820190508181036000830152611c3e81611c02565b9050919050565b611c4e8161173e565b82525050565b611c5d816117d6565b82525050565b6000608082019050611c786000830187611c45565b611c856020830186611c45565b611c926040830185611a04565b611c9f6060830184611c54565b95945050505050565b7f506c65617365207375626d6974207468652061736b696e672070726963650000600082015250565b6000611cde601e83611aae565b9150611ce982611ca8565b602082019050919050565b60006020820190508181036000830152611d0d81611cd1565b9050919050565b6000819050919050565b6000611d39611d34611d2f8461171e565b611d14565b61171e565b9050919050565b6000611d4b82611d1e565b9050919050565b6000611d5d82611d40565b9050919050565b611d6d81611d52565b82525050565b6000606082019050611d886000830186611d64565b611d956020830185611c45565b611da26040830184611a04565b949350505050565b6000608082019050611dbf6000830187611d64565b611dcc6020830186611c45565b611dd96040830185611a04565b611de66060830184611c54565b95945050505050565b7f6964206d757374203c3d206974656d20636f756e740000000000000000000000600082015250565b6000611e25601583611aae565b9150611e3082611def565b602082019050919050565b60006020820190508181036000830152611e5481611e18565b9050919050565b7f6974656d206d757374206265206f6e206d61726b657400000000000000000000600082015250565b6000611e91601683611aae565b9150611e9c82611e5b565b602082019050919050565b60006020820190508181036000830152611ec081611e84565b9050919050565b7f6d75737420626520746865206f776e6572000000000000000000000000000000600082015250565b6000611efd601183611aae565b9150611f0882611ec7565b602082019050919050565b60006020820190508181036000830152611f2c81611ef0565b9050919050565b6000819050919050565b6000611f58611f53611f4e84611f33565b611d14565b611705565b9050919050565b611f6881611f3d565b82525050565b6000608082019050611f836000830187611d64565b611f906020830186611c45565b611f9d6040830185611f5f565b611faa6060830184611c54565b95945050505050565b7f4e487b7100000000000000000000000000000000000000000000000000000000600052601160045260246000fd5b6000611fed82611705565b91507fffffffffffffffffffffffffffffffffffffffffffffffffffffffffffffffff820361201f5761201e611fb3565b5b600182019050919050565b7f4e487b7100000000000000000000000000000000000000000000000000000000600052604160045260246000fd5b7f4e487b7100000000000000000000000000000000000000000000000000000000600052603260045260246000fd5b7f5265656e7472616e637947756172643a207265656e7472616e742063616c6c00600082015250565b60006120be601f83611aae565b91506120c982612088565b602082019050919050565b600060208201905081810360008301526120ed816120b1565b905091905056fea26469706673582212205d5b5afebb9f4dc657785e2a1f2638b8e0ed30626c94a0b35f34654517a7562364736f6c63430008120033",
  "linkReferences": {},
  "deployedLinkReferences": {}
}